:020000040000FA
:1000000098040010850100008D0100008F010000A0
:100010009101000093010000950100009EF3FFEFA5
:100020000000000000000000000000009701000038
:1000300099010000000000009B0100009D010000EC
:100040009F010000C10A0000DD0A00009F010000BE
:10005000F90A00009F0100009F0100009F010000BD
:100060009F0100009F0100009F0100009F01000010
:100070009F010000000000009F0100009F010000A0
:100080009F0100009F0100009F0100009F010000F0
:100090009F0100009F0100009F0100009F010000E0
:1000A0009F0100009F0100009F0100009F010000D0
:1000B0009F0100009F0100009F0100009F010000C0
:1000C0009F0100009F0100009F0100009F010000B0
:1000D0009F0100009F0100009F0100009F010000A0
:1000E0009F01000000F002F800F03CF80AA090E840
:1000F000000C82448344AAF10107DA4501D100F0E3
:1001000031F8AFF2090EBAE80F0013F0010F18BF73
:10011000FB1A43F001031847CC120000EC12000058
:10012000103A24BF78C878C1FAD8520724BF30C823
:1001300030C144BF04680C607047000000230024F5
:1001400000250026103A28BF78C1FBD8520728BFE7
:1001500030C148BF0B6070471FB501F03DF91FBDAE
:1001600010B510BD00F02FF81146FFF7F5FF00F0B5
:1001700069FE00F04DF803B4FFF7F2FF03BC00F096
:1001800055F800000948804709480047FEE7FEE7A8
:10019000FEE7FEE7FEE7FEE7FEE7FEE7FEE7FEE737
:1001A00004480549034A054B704700001108000048
:1001B000E50000009800001098040010980000105E
:1001C000704770477047754600F02CF8AE46050042
:1001D0006946534620F00700854618B020B5FFF762
:1001E000DFFFBDE820404FF000064FF000074FF062
:1001F00000084FF0000B21F00701AC46ACE8C00945
:10020000ACE8C009ACE8C009ACE8C0098D4670474D
:1002100010B50446AFF300802046BDE81040FFF75C
:10022000AABF00000048704738000010014918209C
:10023000ABBEFEE72600020070470000234A1068AC
:10024000234A1168234A126842F02002214BC43B22
:10025000C3F8C420204AD26C42F494421E4BDA64A4
:1002600002225A601D4AD2F8882042F003021B4B3A
:10027000C3F888201A46D2F8AC2042F00302C3F833
:10028000AC201A46D2F8942042F00302C3F894201E
:10029000134A1268134BB2FBF3F2521E0E4BDA6094
:1002A00041F288329A611A46D0610A225A621A468D
:1002B0009164526942F002025A611A46126D42F08C
:1002C0004B021A6509225A607047000004000010B2
:1002D00008000010C4C00F400040014000C00240B0
:1002E0002C00001040420F000808A0F500114FEA52
:1002F000310170470000000000000000FFFFFFFF19
:100300009FED2B0A2B4880ED000A90ED000ADFEDEF
:100310002A0A20EE200ABCEEC00A284880ED000A16
:10032000244890ED000ADFED260A20EE200ABCEEFC
:10033000C00A244880ED000A2348006840F4805039
:100340002149C439C1F8C4002048006E40F00100C2
:100350001E4908660846006E20F0980008660846A8
:10036000406E40F0010048660846406E20F098005C
:1003700048661748C06820F480701549C860154861
:1003800000681549B0FBF1F0401E000210490860FA
:100390000846006840F4803008600846006840F075
:1003A000060008600846006840F4001008607047C6
:1003B000B88F603F0000001000C05A4504000010D4
:1003C00000409C4508000010C4C00F4000C002401F
:1003D000004003402C00001040420F0053480068CA
:1003E00040F400405149C439C1F8C4005048D0F825
:1003F000E00020F007004E49C1F8E0000846D0F8C0
:10040000DC0020F00700C1F8DC000846D0F8D0007E
:1004100020F00700C1F8D0000846D0F8F80020F01E
:100420000700C1F8F8000846D0F8280120F00700BE
:10043000C1F828010846D0F89C0020F00700C1F858
:100440009C000846D0F8980020F00700C1F89800FA
:100450000846D0F8B00020F00700C1F8B000084608
:10046000D0F88C0020F00700C1F88C000846D0F8C6
:100470008C0220F00700C1F88C020846D0F88802F0
:1004800020F00700C1F888020846D0F8900220F05A
:100490000700C1F890020846D0F8800220F007005B
:1004A000C1F880020846D0F8840220F00700C1F8A5
:1004B00084020846D0F8280140F04000C1F8280125
:1004C0000846D0F88C0240F04000C1F88C02084683
:1004D000D0F8880240F04000C1F888020846D0F801
:1004E000900240F04000C1F890020846D0F8800227
:1004F00040F04000C1F880020846D0F8840240F085
:100500004000C1F884020B48006A0B4908430949BE
:1005100008620846006C20F4806008640846D0F841
:10052000A00020F01F00C1F8A0007047C4C00F4019
:1005300000C0024000800920C810904130B5AD488D
:10054000006800F48070002872D1AA480830006862
:1005500000F0010070BBA748006800F01F0008B958
:10056000002006E0A348006800F01F00A249B1FB8C
:10057000F0F0A24908609F48A430006800F01F0016
:1005800008B9002007E09B48A430006800F01F0075
:100590009949B1FBF0F09A4908609648001F00683D
:1005A00000F00100401C95490968B1FBF0F0954945
:1005B0000860BEE08F489C30006800F0400038B909
:1005C00000208E4908608E4908608E490860B0E0BE
:1005D0008848006800F01F0008B9002006E0854840
:1005E000006800F01F008449B1FBF0F08349086007
:1005F0008048A430006800F01F0008B9002007E020
:100600007C48A430006800F01F007B49B1FBF0F08B
:100610007B4908607748001F006800F00100401C1B
:1006200076490968B1FBF0F07649086081E0FFE7A0
:1006300070487C38006800F4807038B900206F4939
:1006400008606F4908606F49086072E069480830C7
:10065000006800F0010070BB664C7C3C246804F02C
:100660001F04601C684CD4F8044104F01F01614C65
:10067000A434246804F01F02634CD4F8004104F051
:100680000104631C09B9002403E05B4C4443B4FB40
:10069000F1F45A4D2C600AB9002403E0564C44434F
:1006A000B4FBF2F4564D2C60544C2468B4FBF3F4C4
:1006B000544D2C603DE0FFE74E489C30006800F050
:1006C000400038B900204D4908604D4908604D4947
:1006D00008602EE0474C7C3C246804F01F04601C3A
:1006E000494CD4F8044104F01F01424CA43424685E
:1006F00004F01F02444CD4F8004104F00104631CD0
:1007000009B9002403E03C4C4443B4FBF1F43B4DF5
:100710002C600AB9002403E0374C4443B4FBF2F4E4
:10072000374D2C60354C2468B4FBF3F4354D2C6008
:1007300000BF3048001D006800F4807098B32D4859
:10074000001D006800F01F0020B1042806D0062814
:1007500024D104E000202D49086023E000BF254A91
:100760007C3A126802F01F02501C274AD2F8082176
:1007700002F01F011F4A0832126802F0010232B172
:100780001D4A4243B2FBF1F2204B1A6005E01A4ABF
:100790004243B2FBF1F21D4B1A6003E000201B49FB
:1007A000086000BF25E0FFE71248001D006800F464
:1007B0000070D8B10F480830006800F0010050B157
:1007C0000C485C38006800F01F00401C0A49484390
:1007D0000E4908600DE007487C38006800F01F00F3
:1007E000401C054948430949086002E000200749C8
:1007F000086030BD04C10F40001BB7002800001086
:100800002C0000103000001000C00F403400001019
:1008100010B500F0B9FA20202749086001202749C7
:10082000C1F80C0109202549843108600120091F05
:100830000860AA2021498C310860552008602320D7
:100840001E49A43108600120091F0860AA201B4925
:10085000AC3108605520086040F2011016499C39FF
:10086000086040F20120091D086001201249A039EA
:10087000086002201049143108600F4908310860EF
:100880000F480E49C431086088150C49C1F8C801E9
:100890000846D0F8B00140F0030007491031086065
:1008A00045F23A0005490860002006490860FFF754
:1008B00045FE00F009F810BDA0C10F4000C00F4078
:1008C000DE87280408ED00E010B5012073490860B8
:1008D0007349C1F88401714908310860091D086035
:1008E000091D0860091D0860091D0860091D0860D0
:1008F000091D0860091D0860091D0860091D0860C0
:10090000091D0860091D0860091D0860091D0860AF
:10091000091D0860091D0860091D0860091D08609F
:10092000091D0860091D0860091D0860091D08608F
:10093000091D0860091D0860091D0860091D08607F
:10094000091D0860091D0860091D0860091D08606F
:10095000091D0860091D0860091D0860091D08605F
:10096000091D0860091D0860091D0860091D08604F
:10097000091D0860091D0860091D0860091D08603F
:10098000091D0860091D0860091D0860091D08602F
:10099000091D0860091D0860091D0860091D08601F
:1009A000091D0860091D0860091D0860091D08600F
:1009B0003C490860091D08603A491C3908603749FC
:1009C00038390860354940390860091D08603349E5
:1009D00010390860091D0860091D0860091D0860BC
:1009E0002E49303908602E49C1F860012E48006850
:1009F00041F2111108432D49C1F8DC010846D0F835
:100A0000C40040F400602949C4310860012028492D
:100A10000860002088602320486201208862086303
:100A200003204863052088630220C863032008640C
:100A30000120486404208864C864052008650120FA
:100A4000486588654FF489401A49086040F20220E1
:100A50001749C1F80401642000F0F4F840F2831053
:100A600013490862C82000F0EDF840F20310104965
:100A7000086202204862002400E0641C802CFCD341
:100A80003A200B494862832008620B4800680B48F3
:100A90000849086000200649086210BD80C1024074
:100AA00000C0024080C20240DCC10F4000C00F40C5
:100AB00000C0092000C10920004004A080440800B3
:100AC0000120054908604FF04020006840F0010017
:100AD0004FF04021086070470C00001002200449CC
:100AE00008600448006840F001000249086070474F
:100AF0000C0000100080004000B500F06DF90348C4
:100B0000006840F004000149086000BD0040094051
:100B100010B542480068424908434049C439C1F809
:100B2000C4004048406A40F003003E49486208461D
:100B3000806940F0030088610846C06D40F0030002
:100B4000C86502204FF04021486037494860374966
:100B5000486037494860374800683749B0FBF1F0D2
:100B6000401E4FF04021C860324800683249B0FB57
:100B7000F1F0401E2C49C8602E4800682E49B0FB99
:100B8000F1F0401E2949C8602A4800682A49B0FB94
:100B9000F1F0401E2649C86028484FF04021886186
:100BA0000846406940F00300486125481F498861B4
:100BB0000846406940F0030048611D48806A40F0E3
:100BC00007001B4988620020174988610846406970
:100BD00040F0020048610846C06B40F03100C86335
:100BE000012000F045F8012000F050F8022000F04C
:100BF0003FF8022000F04AF8042000F039F8042001
:100C000000F044F801200A49486008494860064954
:100C100048604FF04021486010BD0000C4C00F4044
:100C20000600C00000C002400000094000800040F3
:100C3000004009402C00001040420F00400D03000E
:100C4000F04902000949096842F21072B1FBF2F161
:100C5000484305E000BF00BF00BF00BF00BF00BFAA
:100C6000011EA0F10100F5D170470000280000101E
:100C7000002807DB00F01F0201219140024A4309CE
:100C800042F823107047000080E200E000280DDBEE
:100C900000BF00BF00F01F020121914042099200F5
:100CA00002F1E022C2F8001100BF00BF704700004F
:100CB00000B50246082A16D006DC012A0AD0022A0C
:100CC0000BD0042A20D10BE0102A0FD0B2F5806F90
:100CD0001AD10EE000F0F0F816E000F0CFF813E0C3
:100CE00000F09EF810E000F0DBF80DE000F0F8F8FE
:100CF0000AE00648006808B9012000E00020034926
:100D0000086000F0CDF800BF00BF00BD100000106B
:100D100000B50246042A05D0082A09D0B2F5806F32
:100D200026D10BE000F07CF80020124908601FE09B
:100D300000F0B6F801200F49086019E000F0B0F8A3
:100D40000D48006808B9012000E000200A49086049
:100D50000846006858B90948006809498864094884
:100D60000068C8610846006D40F04200086500BF99
:100D700000BF00BD2400001010000010080000108B
:100D800000400140040000103EB50F480F4B191DF4
:100D900000221C6801940C6800940D4D019CAC422B
:100DA00005D10C4D009CAC4201D1012400E000248F
:100DB00022463AB104680294029C44F470040294FE
:100DC000029C04603EBD000088ED00E040EF00E0C2
:100DD00021001110110000110D48006810B1012808
:100DE00013D107E001200A4908600A48C06A0A498D
:100DF00008600AE00020064908600648C06A064903
:100E00000968401A0549086000BF00BF704700002C
:100E10002000001000400940180000101C000010C5
:100E20000448054948630020044988610449086072
:100E30007047000008108040008009200000094031
:100E400014000010FFF75CFAFFF7C8FAFFF760FE26
:100E5000FFF7F4F962B60EE00748046814B1012CFC
:100E600006D102E000F050F802E000F091F800BF77
:100E700000BF30BF00BFEFE7100000100448054975
:100E800048630020044988610220044908607047D3
:100E9000C00010010080092000000940140000106B
:100EA000002003494863042002490860704700009D
:100EB00000800920140000100448054948630548D3
:100EC0000549886103200549086070478800004192
:100ED0000080092090D00300000009401400001099
:100EE00004480549486305480549886101200549CA
:100EF00008607047401090000080092090D00300E7
:100F0000000009401400001010B51C480468012CB2
:100F100017D0022C2FD11A4800687421B0FBF1F0D1
:100F200000EE900AB8EE600A1648006840B9F2EE8A
:100F3000080AB4EEE00AF1EE10FA01D2FFF7B0FFB2
:100F400019E01148006800F01F000F49B439496DDD
:100F500001F4806140EA010313B11846FFF7A8FECF
:100F600007480068B0F5CA4F04D900200749086057
:100F70000349086000BF00BF10BD00000C00001056
:100F80001C00001014000010B4800920180000108C
:100F90002DE9F0412DED068B00275D48D0F800804B
:100FA000B8F1010F7BD0B8F1020F79D15948006830
:100FB0007421B0FBF1F000EE100AB8EE408A0DE0AB
:100FC000FFF76EFF534800687421B0FBF1F000EEAC
:100FD000100AB8EE400AB0EE408A0127B2EE0A0AC3
:100FE000B4EEC08AF1EE10FAEAD32FB14A48006895
:100FF00010B90027FFF714FF48480068042867D09D
:1010000047484069C0F30B1545488069C0F30B168B
:10101000B5422DDD284600F0D0F841EC1A0B9FEDCB
:10102000410B53EC102B00F0DFF841EC190B00F0F2
:1010300097F83E498864304600F0BFF841EC1A0B3F
:101040009FED3B0B53EC102B00F0CEF841EC190B4D
:1010500000F086F83549C8610846006D40F042004E
:1010600008653548354948633548364988612FE079
:10107000284600F0A2F841EC1A0B9FED330B53EC1D
:10108000102B00F0B1F841EC190B00F069F827497A
:101090008864304600F091F841EC1A0B01E018E04A
:1010A00031E09FED2B0B53EC102B00F09DF841EC41
:1010B000190B00F055F81D49C8610846006D40F055
:1010C0004200086524481D4948631D481D49886140
:1010D00019E01A48B430006800F01F001749496D44
:1010E00001F4806140EA010414B12046FFF710FECC
:1010F00008480068B0F5CA4F04D9002017490860B5
:101100000449086000BF00BFBDEC068BBDE8F0815C
:101110000C0000101C00001024000010140000102F
:1011200000400340A65FFAA55FFA35400040014049
:101130001FF4411FF4411F4040108000008009202F
:1011400090D0030000000940521995511995314083
:101150009438899338892340880000401800001093
:101160004FEA1153A3F58063D3F11E03A8BFD3F157
:10117000200C08DB4FF0004242EAC12252EA5052F2
:1011800032FA03F0704709420BD4102BC4BF002081
:10119000704703F5787CBCF1FF3F05D04FF0FF307E
:1011A00070474FF00000704770B500F0C7F800BFFF
:1011B0004992248000207047F0E710F0004248BFB9
:1011C0004042B0FA80F310FA03F10AD0C3F11D03D4
:1011D00003F580634FEA415002EB035202EBD12149
:1011E00070474FF000007047DFF848C170B51CEA47
:1011F000111E1EBF1CEA13159EEA0C0F95EA0C0F78
:1012000000F06F8081EA030423EA4C134EEAD47E97
:1012100021EA4C1141F4801143F48013AE44A1FB48
:10122000024CA0FB0365AEF17F7E361955EB0C0531
:10123000A1FB034C4CF10003A0FB021C16EB0C06B7
:10124000654153F10003094218BF46F0010613F44B
:10125000007F0BD14FEA03314FEA0530340341EAF6
:10126000155140EA16506FF003020AE04FEAC3211D
:101270004FEAC520F40241EA555140EA56506FF05A
:10128000020202EB2E4201EB025585EACE710AD032
:101290005FEA440C18BF24F0004450F1000041F113
:1012A000000120EAD47040F2FE7C624500D270BD9D
:1012B000A84214BF4FF080444FF04044002E08BFB6
:1012C0000024BEF1806FA8BFA1F1C041BDE870400D
:1012D000BFF60AA84FF0000001F1C04101F0004143
:1012E00070479EEA0C0F0CEA131518BF95EA0C0F15
:1012F00006D04FF0000081EA030E0EF0004170BDF1
:1013000000F01CF88900013E00F007B800F009B8B1
:101310004FEA430C5FEA5C5C08D081EA0301FEF708
:10132000E3BF4FEA410C5FEA5C5CF6D14FF000008E
:10133000014970470000FF070000F87F0EF1020E20
:101340002EF0030E5EF8046B364205D4012A43EBFF
:10135000030515F5001F12D8012841EB010C1CF5FF
:10136000001F0CD80ED14FEAD17C15F5001F0CEBF5
:101370004C0C0CF1020C08BF4CEBD37C04E04FF09A
:10138000080C01E04FEAD37C0CEB4C0526FA05F67D
:1013900006F00706B6F1040C06D20EEB860CBDE88B
:1013A00070404CF0010C6047DFE80CF0090B0202C2
:1013B0004FF000414FF00000A1F5002170BD19462B
:1013C0001046012851EB010418BFD4F5001484BF66
:1013D000002001F0004170BD4FF04070E1EE100AB6
:1013E00070470000041400000000001038000000E6
:1013F000200100003C1400003800001060040000D0
:101400003C0100000000000000000000000000009F
:1014100000000000000000000100000000000000CB
:10142000000000000000000000000000000E270780
:0C1430000087930300879303006CDC022C
:040000050000018571
:00000001FF
